:100000000C9434000C9451000C9451000C94510049
:100010000C9451000C9451000C9451000C9451001C
:100020000C9451000C9451000C9451000C9451000C
:100030000C9451000C9451000C9451000C945100FC
:100040000C9451000C9451000C9451000C945100EC
:100050000C9451000C9451000C9451000C945100DC
:100060000C9451000C94510011241FBECFEFD8E026
:10007000DEBFCDBF11E0A0E0B1E0E2EEF1E002C0F2
:1000800005900D92A230B107D9F721E0A2E0B1E0CE
:1000900001C01D92A730B207E1F70E9474000C94D2
:1000A000EF000C940000ECE7F0E0108280818064A7
:1000B000808380818F7D8083EAE7F0E080818760A4
:1000C0008083808180688083808180648083808158
:1000D00086FDFDCF209178008091790090E0982FE7
:1000E0008827820F911D08950E948B000E94530063
:1000F0004AE062E071E00E94BA0082E091E00E9472
:10010000A5002FEF83ED90E3215080409040E1F770
:1001100000C00000EBCF1092C50087E68093C400BA
:10012000E1ECF0E0808188618083E2ECF0E08081A6
:10013000866080830895DC01E0ECF0E0908195FF1B
:10014000FDCF8C918093C6000895CF93DF93FC017F
:100150002081222341F0EC0121960E949B00CE01D8
:1001600028812111F8CF80E091E00E949B00DF916F
:10017000CF910895BB274A3031F4992322F4BDE290
:10018000909581959F4F0C94C600BB27FB01552786
:10019000AA27880F991FAA1FA41710F0A41B8395E4
:1001A0005051B9F7A05DAA3308F0A95DA19300975B
:1001B00079F7B111B1931192CB010C94DF00DC01FE
:1001C000FC01672F71917723E1F7329704C07C918E
:1001D0006D9370836291AE17BF07C8F30895F894CA
:0201E000FFCF4F
:0201E2000A0011
:00000001FF
