:100000000C9434000C9451000C9451000C94510049
:100010000C9451000C9451000C9451000C9451001C
:100020000C9451000C9451000C9451000C9451000C
:100030000C9451000C9451000C9451000C945100FC
:100040000C9451000C9451000C9451000C945100EC
:100050000C9451000C9451000C9451000C945100DC
:100060000C9451000C94510011241FBECFEFD8E026
:10007000DEBFCDBF11E0A0E0B1E0E8E0F2E002C0F9
:1000800005900D92A230B107D9F721E0A2E0B1E0CE
:1000900001C01D92A430B207E1F70E9475000C94D4
:1000A00002010C940000EAE7F0E080818760808321
:1000B000808180688083808180648083808186FDE8
:1000C000FDCF80917800282F30E0309303012093FA
:1000D00002018091790090E0982F8827820F931F6A
:1000E00090930301809302010895CF93DF9300D092
:1000F00000D01F92CDB7DEB70E949E00ECE7F0E083
:10010000108280818064808380818F7D80830E94C3
:1001100053004AE0BE016F5F7F4F0E94CD001D82F9
:10012000CE0101960E94B8002FEF89E698E1215098
:1001300080409040E1F700C00000E9CF1092C50078
:1001400087E68093C400E1ECF0E0808188618083E1
:10015000E2ECF0E08081866080830895DC01E0ECD1
:10016000F0E0908195FFFDCF8C918093C6000895BB
:10017000CF93DF93FC012081222341F0EC012196F3
:100180000E94AE00CE0128812111F8CF80E091E0DD
:100190000E94AE00DF91CF910895BB274A3031F421
:1001A000992322F4BDE2909581959F4F0C94D9003C
:1001B000BB27FB015527AA27880F991FAA1FA41741
:1001C00010F0A41B83955051B9F7A05DAA3308F035
:1001D000A95DA193009779F7B111B1931192CB0169
:1001E0000C94F200DC01FC01672F71917723E1F799
:1001F000329704C07C916D9370836291AE17BF07F4
:08020000C8F30895F894FFCF44
:020208000A00EA
:00000001FF
