:100000000C9434000C9462000C9470000C943E002C
:100010000C943E000C943E000C943E000C943E0068
:100020000C943E000C943E000C943E000C943E0058
:100030000C943E000C943E000C947E000C943E0008
:100040000C943E000C943E000C943E000C943E0038
:100050000C943E000C943E000C943E000C943E0028
:100060000C943E000C943E0011241FBECFEFD8E04C
:10007000DEBFCDBF0E945F000C9490000C94000086
:100080008AB1837F8AB9549A5C988BB18C608BB9A2
:10009000E9E6F0E080818A6080838DB383608DBB68
:1000A00084B5826084BD86E487BD85B5846085BDE6
:1000B000EEE6F0E0808182608083789408950E946B
:1000C0004000FFCF1F920F920FB60F9211248F9313
:1000D00086E787BD8F910F900FBE0F901F901895E8
:1000E0001F920F920FB60F9211248F9386E487BD53
:1000F0008F910F900FBE0F901F9018951F920F9227
:100100000FB60F9211248F939F939BB180E18927A3
:100110008BB99F918F910F900FBE0F901F901895E4
:04012000F894FFCF81
:00000001FF
