:100000000C9434000C943E000C943E000C943E0082
:100010000C943E000C943E000C943E000C943E0068
:100020000C943E000C943E000C943E000C943E0058
:100030000C943E000C943E000C943E000C943E0048
:100040000C943E000C943E000C943E000C943E0038
:100050000C943E000C943E000C943E000C943E0028
:100060000C943E000C943E0011241FBECFEFD8E04C
:10007000DEBFCDBF0E944D000C9451000C940000D7
:10008000529A5A98089594E08BB189278BB9E1EC84
:10009000F1E13197F1F70000F7CF0E9440000E9494
:0600A0004300F894FFCFBD
:00000001FF
