:100000000C9434000C943E000C943E000C943E0082
:100010000C943E000C943E000C943E000C943E0068
:100020000C943E000C943E000C943E000C943E0058
:100030000C943E000C943E000C943E000C943E0048
:100040000C943E000C943E000C943E000C943E0038
:100050000C943E000C943E000C943E000C943E0028
:100060000C943E000C943E0011241FBECFEFD8E04C
:10007000DEBFCDBF0E9461000C94DA000C9400003A
:10008000ECE7F0E0808380818064808380818F7DD5
:100090008083EAE7F0E080818760808380818068E8
:1000A0008083808180648083808186FDFDCF209164
:1000B00078008091790090E0982F8827820F911D19
:1000C0000895CF93DF9300D000D01F92CDB7DEB755
:1000D0000E94820080E00E9440004AE0BE016F5F03
:1000E0007F4F0E94A5001D82CE0101960E949600BE
:1000F0002FEF89E698E1215080409040E1F700C061
:100100000000E8CF1092C50087E68093C400E1ECC0
:10011000F0E0808188618083808180688083E2EC68
:10012000F0E080818660808378940895FC0190815E
:10013000992339F03196A6ECB0E09C9391919111FE
:10014000FCCF8AE08093C6000895BB274A3031F483
:10015000992322F4BDE2909581959F4F0C94B100B4
:10016000BB27FB015527AA27880F991FAA1FA41791
:1001700010F0A41B83955051B9F7A05DAA3308F085
:10018000A95DA193009779F7B111B1931192CB01B9
:100190000C94CA00DC01FC01672F71917723E1F711
:1001A000329704C07C916D9370836291AE17BF0744
:0801B000C8F30895F894FFCF95
:00000001FF
