:100000000C9434000C9449000C9449000C94490061
:100010000C9449000C9449000C9449000C9449003C
:100020000C9449000C9449000C9449000C9449002C
:100030000C9449000C9449000C9449000C9449001C
:100040000C9449000C9449000C9449000C9449000C
:100050000C9449000C9449000C9449000C944900FC
:100060000C9449000C94490011241FBECFEFD8E036
:10007000DEBFCDBF11E0A0E0B1E0E0E1F1E002C001
:1000800005900D92A230B107D9F70E944B000C9455
:1000900086000C940000569A569A8FEF87BD84B55F
:1000A000806884BD84B5836084BD85B5826085BD6C
:1000B00091E080910001882399F087B5882369F049
:1000C00087B5869587BD2FEF33ED80E32150304013
:1000D0008040E1F700C00000ECCF10920001E9CFB2
:1000E00087B58F3F19F490930001E3CF87B5880F50
:1000F00087BD87B5816087BD2FEF33ED80E3215049
:1001000030408040E1F700C00000D3CFF894FFCF2B
:020110000100EC
:00000001FF
