S0180000506F74694D756C7469706C6578696E672E737265636E
S11300000C9434000C9451000C9451000C94510045
S11300100C9451000C9451000C9451000C94510018
S11300200C9451000C9451000C9451000C94510008
S11300300C9451000C9451000C9451000C945100F8
S11300400C9451000C9451000C9451000C945100E8
S11300500C9451000C9473000C9451000C945100B6
S11300600C9451000C94510011241FBECFEFD8E022
S1130070DEBFCDBF11E0A0E0B1E0E6E7F2E002C0F0
S113008005900D92A431B107D9F721E0A4E1B1E0C4
S113009001C01D92AC31B207E1F70E9453000C94E9
S11300A039010C9400000E94D500ECE7F0E01082C6
S11300B0808180648083808180628083EAE7F0E0CD
S11300C080818760808380818062808310927B003E
S11300D0808180688083808188608083808180645F
S11300E080837894FFCF1F920F920FB60F92112442
S11300F02F933F934F935F936F937F938F939F932C
S1130100AF93BF93EF93FF938091140181111FC0AC
S11301108091790090E090931B0180931A014AE04A
S113012065E171E00E9404011092190180E091E000
S11301300E94EF0085E191E00E94EF00ECE7F0E01F
S113014080818160808381E0809314011DC080914F
S1130150790090E090931B0180931A014AE065E1D5
S113016071E00E9404011092190189E091E00E945B
S1130170EF0085E191E00E94EF00ECE7F0E0808180
S11301808E7F808310921401FF91EF91BF91AF9104
S11301909F918F917F916F915F914F913F912F919B
S11301A00F900FBE0F901F9018951092C50087E610
S11301B08093C400E1ECF0E0808188618083E2EC0C
S11301C0F0E08081866080830895DC01E0ECF0E05B
S11301D0908195FFFDCF8C918093C6000895CF93B5
S11301E0DF93FC012081222341F0EC0121960E943F
S11301F0E500CE0128812111F8CF82E191E00E942F
S1130200E500DF91CF910895BB274A3031F499235B
S113021022F4BDE2909581959F4F0C941001BB2769
S1130220FB015527AA27880F991FAA1FA41710F0AE
S1130230A41B83955051B9F7A05DAA3308F0A95DBA
S1130240A193009779F7B111B1931192CB010C945A
S11302502901DC01FC01672F71917723E1F73297C3
S113026004C07C916D9370836291AE17BF07C8F38D
S10902700895F894FFCF8D
S1130276506F746920313A2000506F746920323A05
S107028620000A0046
S9030000FC
