S0180000506F74694D756C7469706C6578696E672E737265636E
S11300000C9434000C9451000C9451000C94510045
S11300100C9451000C9451000C9451000C94510018
S11300200C9451000C9451000C9451000C94510008
S11300300C9451000C9451000C9451000C945100F8
S11300400C9451000C9451000C9451000C945100E8
S11300500C9451000C9473000C9451000C945100B6
S11300600C9451000C94510011241FBECFEFD8E022
S1130070DEBFCDBF11E0A0E0B1E0E8E3F2E002C0F2
S113008005900D92A431B107D9F721E0A4E1B1E0C4
S113009001C01D92A931B207E1F70E9453000C94EC
S11300A01A010C9400000E94B600ECE7F0E0108204
S11300B0808180648083808180628083EAE7F0E0CD
S11300C080818760808380818062808310927B003E
S11300D0808180688083808188608083808180645F
S11300E080837894FFCF1F920F920FB60F92112442
S11300F02F933F934F935F936F937F938F939F932C
S1130100AF93BF93EF93FF9380917C0080FF05C072
S113011080E091E00E94D00004C089E091E00E9458
S1130120D000809179004AE064E171E090E00E949F
S1130130E5001092180184E191E00E94D000ECE700
S1130140F0E0908181E089278083FF91EF91BF9156
S1130150AF919F918F917F916F915F914F913F915B
S11301602F910F900FBE0F901F9018951092C500FD
S113017087E68093C400E1ECF0E0808188618083AD
S1130180E2ECF0E08081866080830895DC01E0EC9D
S1130190F0E0908195FFFDCF8C918093C600089587
S11301A0CF93DF93FC012081222341F0EC012196BF
S11301B00E94C600CE0128812111F8CF82E191E08E
S11301C00E94C600DF91CF910895BB274A3031F4D5
S11301D0992322F4BDE2909581959F4F0C94F100F0
S11301E0BB27FB015527AA27880F991FAA1FA4170D
S11301F010F0A41B83955051B9F7A05DAA3308F001
S1130200A95DA193009779F7B111B1931192CB0134
S11302100C940A01DC01FC01672F71917723E1F74B
S1130220329704C07C916D9370836291AE17BF07BF
S10B0230C8F30895F894FFCF10
S1130238506F746920323A2000506F746920313A43
S107024820000A0084
S9030000FC
