:100000000C9434000C9451000C9451000C94510049
:100010000C9451000C9451000C9451000C9451001C
:100020000C9451000C9451000C9451000C9451000C
:100030000C9451000C9451000C9451000C945100FC
:100040000C9451000C9451000C9451000C945100EC
:100050000C9451000C949C000C9451000C94510091
:100060000C9451000C94510011241FBECFEFD8E026
:10007000DEBFCDBF11E0A0E0B1E0E4E4F3E002C0F8
:1000800005900D92A431B107D9F721E0A4E1B1E0C8
:1000900001C01D92A032B207E1F70E9453000C94F8
:1000A000A0010C9400000E943C01ECE7F0E01082FB
:1000B000808180648083808180628083EAE7F0E0D1
:1000C00080818760808380818062808310927B0042
:1000D0008081806880838081886080838081806463
:1000E00080837894809100018823F1F38091180136
:1000F000909119014AE06BE171E00E946B01CBE144
:10010000D1E01C8281E091E00E945601CE010E9464
:10011000560180911601909117014AE0BE010E949C
:100120006B011C828AE091E00E945601CE010E9480
:10013000560110920001D6CF1F920F920FB60F9268
:1001400011242F933F934F935F936F937F938F93DC
:100150009F93AF93BF93EF93FF9380911A01811107
:100160003EC08091790090E0909315018093140136
:10017000809114019091150120911801309119017D
:10018000821B930B9C0122F422273327281B390B57
:1001900022303105DCF0809114019091150190938B
:1001A00019018093180180911801909119014AE07A
:1001B0006BE171E00E946B0110921F0181E091E000
:1001C0000E9456018BE191E00E945601ECE7F0E0BD
:1001D00080818160808381E080931A013CC080919E
:1001E000790090E09093150180931401809114019F
:1001F000909115012091160130911701821B930BEC
:100200009C0122F422273327281B390B2230310589
:10021000DCF0809114019091150190931701809367
:10022000160180911601909117014AE06BE171E08F
:100230000E946B0110921F018AE091E00E9456011A
:100240008BE191E00E945601ECE7F0E080818E7F27
:10025000808310921A01FF91EF91BF91AF919F910E
:100260008F917F916F915F914F913F912F910F905F
:100270000FBE0F901F9018951092C50087E68093CF
:10028000C400E1ECF0E0808188618083E2ECF0E082
:100290008081866080830895DC01E0ECF0E090814D
:1002A00095FFFDCF8C918093C6000895CF93DF9387
:1002B000FC012081222341F0EC0121960E944C0197
:1002C000CE0128812111F8CF83E191E00E944C01F9
:1002D000DF91CF910895BB274A3031F4992322F45E
:1002E000BDE2909581959F4F0C947701BB27FB0150
:1002F0005527AA27880F991FAA1FA41710F0A41B1F
:1003000083955051B9F7A05DAA3308F0A95DA19378
:10031000009779F7B111B1931192CB010C94900130
:10032000DC01FC01672F71917723E1F7329704C05C
:100330007C916D9370836291AE17BF07C8F30895E7
:04034000F894FFCF5F
:1003440001506F746920313A2000506F7469203273
:040354003A20000A41
:00000001FF
